:0400000080312828FB
:100008007E14803100308600003087000B1F0D28D9
:100018000E2826284E01991C122813281B288F1CED
:10002800162817281B288D31E82580312628191C09
:100038001E281F2826280F1C2228232826288D3111
:10004800EC2580317E10090080312A283030840068
:100058008E308500633086000030870007308E318F
:100068000E268031F801F901FA014F308400003082
:10007800850014308E31082680312030840001300C
:10008800850020308E31082680317E104001803175
:100098004D288E31552680318E31292680311530F4
:1000A8004001CE004B30CD00BE30890B5928CD0B16
:1000B8005928CE0B592800008231BC228031C23029
:1000C8004001A7009030A800843178248031723034
:1000D8004001A7009030A8008431272480314F3098
:1000E8008731EF27803168304001CD00E430890B3B
:1000F8007B28CD0B7B2800008E31AD268031410155
:10010800DC005C08031989288A28B128A03040013E
:10011800BC00E530BD009030BE0041015C084001E4
:10012800CD00CE014D08BF004E08C0008F31A42776
:10013800803165304001A7009030A80084317824D0
:100148008031A0304001A7000030A8008431272466
:100158008031023086317E2680318F304001A70001
:100168009030A8008431782480319C304001A70069
:100178009030A80084312724803115304001CE000A
:100188004B30CD00BE30890BC728CD0BC728CE0B0E
:10019800C72800008631B32680314101DB005B08A7
:1001A800031DD728D828F62847304001A7009030EB
:1001B800A80084317824803173304001A700903042
:1001C800A80084312724803152304001CE002B30E2
:1001D800CD000030890BEE28CD0BEE28CE0BEE2893
:1001E8000000122956304001A7009030A800843141
:1001F8007824803172304001A7009030A800843103
:100208002724803129304001CE009630CD007F3040
:10021800890B0C29CD0B0C29CE0B0C298E31F72616
:10022800803181304001A7009030A80084317824C3
:10023800803137304001A7009030A800843127244E
:100248008031400167084101DD0040016808410133
:10025800DE00400169084101DF00400166084101F4
:10026800D600400165084101D500400164084101FC
:10027800D400400163084101D30040011B14E03061
:10028800BB000030BC00853117258031003A0319C6
:100298004E294F29BE2941016408031954295529BB
:1002A800BE296308D8006208D7005408DA0053084A
:1002B800D90058085A02031D632957085902031820
:1002C800662967296C290130DE000130DF006E29BC
:1002D800DE01DF01B1304001BC00CE30BD009030FE
:1002E800BE00410161084001C000410160084001B1
:1002F800BF008F31A427803141015E080319852989
:1003080086299929C2304001BC002630BD009030B2
:10031800BE00410163084001C0004101620840017C
:10032800BF008F31A4278031AB29C2304001BC0007
:10033800A930BD009030BE00410163084001C000F3
:10034800410162084001BF008F31A4278031B130DC
:100358004001A7000030A800843178248031C230E1
:100368004001A7000030A8008431272480314101D2
:10037800DD01D129DA304001A7009030A80084318E
:1003880078248031B6304001A7009030A80084312D
:100398002724803101304101DD0015304001CE00B5
:1003A8004B30CD00BE30890BD729CD0BD729CE0BCA
:1003B800D729000040011B1015304001CE004B30FA
:1003C800CD00BE30890BE629CD0BE629CE0BE629F8
:1003D800000041298031282840012708860087012C
:1003E800403FA900413FAA00290884002A08850047
:1003F8001200253A031D012A022AA12A270886008D
:1004080087010130810741310318810ADD01DE01CE
:100418000030FA00FF30DF00FF30E00027088600D8
:100428008701403FAD00413FAE002D0884002E08F3
:1004380085001200753A031D222A232A972A2808C4
:100448008600870101088400850102308107003F8A
:10045800AF00013FB0002D08013EA90000302E3D3D
:10046800AA002708860087012908C03F2A08C13F3B
:100478008E2A2030B3000130B3023308203E8600B4
:10048800013087000A30F3000030F4003008F6002D
:100498002F08F5008631E72681317308303E810048
:1004A8000A30F3000030F40040013008F6002F084D
:1004B800F50085319825813174084001B000730832
:1004C800AF002F08300403196A2A6B2A872A3308D9
:1004D800031D6F2A702A3F2A872A3308203E860088
:1004E800013087000108A900AA012908F3002A0899
:1004F800F4002608F6002508F50083317B238131B6
:1005080001304001B30720303306031D8C2A8D2AA1
:10051800712ABB2A2D0884002E0885000008753A28
:1005280003193D2A972A40012708860087010130D0
:10053800810741310318810ABB2A270886008701F1
:10054800403FA900413FAA00290884002A088500E5
:100558000008AB00AC012B08F3002C08F4002608B7
:10056800F6002508F50083317B238131972A08009E
:1005780040019A170530F7000F30F600F130890B6B
:10058800C32AF60BC32AF70BC32A00003830F4003D
:1005980000308631482682316830F600E430890B15
:1005A800D32AF60BD32A00320830F4000030863103
:1005B800482682316830F600E430890BE12AF60BD0
:1005C800E12A0032F401F40A0030863148268231EB
:1005D800D030F600CA30890BEF2AF60BEF2A063026
:1005E800F40000308631482682316830F600E43065
:1005F800890BFC2AF60BFC2A00320C30F400003080
:100608008631482682310B30F6006230890B0A2B7E
:10061800F60B0A2B00320230F400003086314826EF
:1006280082311530F600C630890B182BF60B182BC3
:10063800003208000330F300400129088E31832678
:1006480083314001B4002B30A2003408A300583095
:100658008431C92483314001B50035080319352B8D
:10066800362B382B00307A2BBA01732B0330F3006A
:100678003A088E31832683314001B90039082B3E70
:10068800860087010108B7003908013E2B3E860025
:1006980087010108B8003908023E2B3E8600870111
:1006A8000108B6003808F300370887314B27833133
:1006B800400136060319612B622B632B362B3A084F
:1006C800AA000130AA35890B662B28082A0786005C
:1006D80087013808C03F3708C13F0130BA072908E9
:1006E8003A02031C782B792B3A2B01300800750845
:1006F80076040319802B812B872B75087604031D3C
:10070800862B872B8C2B73088731FF278331D32BBC
:100718007508860087014931160001040319952BD5
:10072800962BB52B7508860087014931403F40015B
:10073800A000413FA1007508860087014231403F73
:10074800A200413FA3002308803AA4002108803A70
:100758002402031DB12B200822020318B42BB52B49
:10076800D32B750886008701423175088400760806
:100778008500003F4001A000013FA100403F200745
:100788008400413F213D850073088000750886007C
:10079800870142310130810741310318810A08007D
:1007A80040019801990130309A009B019C01FF306B
:1007B8009200FC3093007F309400FF3095000F309A
:1007C8009600FF307E01B800FC30C3004F30CE00E9
:1007D800FF30D9000730E400B901C401CF01DA01C4
:1007E800E501BA01C501D001DB01E601FF30BB001C
:1007F800FF30C600FF30D100FF30DC000730E700D3
:10080800FF30BC00FF30C700FF30D200FF30DD00F2
:100818000F30E80014307D01C50015307E01A400BA
:1008280015307D01C60016307E01A500BD01BE0150
:10083800BF01C801C901CA01D301D401D501E90129
:10084800EA01EB010800F60101308F314A278431B3
:1008580040012808F4002708F3008E31C5268431AA
:1008680073084001AB00AE01AF0140012F08803A88
:10087800A90080302902031D432C2B082E02031CDB
:10088800462C472C4D2C20304001AC000030AD00E8
:100898005B2C400127082E07840028082F3D85007F
:1008A8000008A900AA012908AC002A08AD002C08F4
:1008B800F40001308631482684318530890B622C5A
:1008C800000001304001AE070030AF3D2F08803AEC
:1008D800A90080302902031D732C10302E02031C3E
:1008E800762C772C392C0800F60100308F314A27F6
:1008F800843140012808F4002708F3008E31C5260A
:10090800843173084001AB00AE01AF0140012F08EC
:10091800803AA90080302902031D942C2B082E024E
:10092800031C972C982C9E2C20304001AC000030E2
:10093800AD00AC2C400127082E07840028082F3D65
:1009480085000008A900AA012908AC002A08AD0002
:100958002C08F40001308631482684318530890B13
:10096800B32C000001304001AE070030AF3D2F0826
:10097800803AA90080302902031DC42C10302E02B1
:10098800031CC72CC82C8A2C08004001A40023088B
:10099800031DCF2CD02CD22C0030162D8F31E127FF
:1009A80084314001A70027080319DB2CDC2CDF2C3D
:1009B80040012708162D0314240D87317927843127
:1009C8004001A70027080319EA2CEB2CEF2C8731EC
:1009D800D0278431DC2CA6010D2D2308FF3E2602EA
:1009E800031CF72CF92C0130FA2C0030A500220842
:1009F8002607A0002508A10086310E268431400173
:100A0800A70027080319092D0A2D0B2DEB2C0130FF
:100A1800A60723082602031C122D132DF12C87315B
:100A2800D0278431080040013B0886008701443103
:100A380081010830A5002030A6008E319626853128
:100A4800003A031D282D292D2B2D00305A2D7D30DD
:100A58004001BD00AB30890B2F2DBD0B2F2D00326F
:100A68003E304001A8000230A90083311E238531A1
:100A7800003A031D402D412D422D292D40013B08F0
:100A880086003C0887003E08C03F3F08C13F3B083E
:100A98008600870142314008C03F4108C13F3B08FA
:100AA800860087014431013081000130080040018F
:100AB800A2008F31E12785314001A40024080319E1
:100AC800662D672D6A2D40012408972D2235FE39A1
:100AD8008731792785314001A40024080319752D31
:100AE800762D7A2D8731D0278531672DA3018E2D5C
:100AF8002008230786008701010887317927853177
:100B08004001A400240803198A2D8B2D8C2D762DE5
:100B18000130A30721082302031C932D942D7C2D5B
:100B28008731D027853108004001A101A20173084F
:100B380074040319A02DA12DCE2D0130A000AB2DDA
:100B48000130F335F40D890BA52D0130A007F41FF2
:100B5800AE2DAF2DA42D0130A135A20D890BB02DDE
:100B680074087602031DBA2D73087502031CBD2D87
:100B7800BE2DC32D7308F5027408F63B211401300D
:100B8800F436F30C890BC42D0130A002031DCD2DC2
:100B9800CE2DAF2D2208F4002108F30008004E01E5
:100BA8000F1043010F1ED92DDA2DDE2D8E3171263F
:100BB8008531F92D8F1AE12DE22DEC2D111FE52D30
:100BC800E62DEC2D05304001DC000130DB00F92D6D
:100BD8008F1EEF2DF02DF92D111FF32DF42DF92D6A
:100BE80005304001DC000230DB0040015C08F10008
:100BF800F201F135F20D1430710784001030723DA6
:100C080080388500013F8A00003F0A008631400194
:100C1800DC0008008F3168278631F7007708031950
:100C2800162E172E192E7708472E430110139115EB
:100C38008E31DE268631F70077080319242E252EFB
:100C4800262E172E400120088600870143010C0834
:100C58008100400121080319322E352E43019116D7
:100C6800372E4301911211169130F3001030F40021
:100C78008F31C2278631F70077080319442E452E95
:100C8800462E172E003008004001A0009A130032AB
:100C98000032003200324001200801398F312E27FE
:100CA800863100308F312E27863107304001A10070
:100CB8000030A2007408F500210A632EF536890B6E
:100CC800622E750801398F312E278631FF30400199
:100CD800A107FF30A23DA21F722E732E5E2E003296
:100CE80000320032003240019A17A0300032890BDE
:100CF8007A2E0800F500F6019F2E40011B140530DE
:100D0800F4000F30F300F130890B882EF30B882E96
:100D1800F40B882E000040011B100530F4000F3042
:100D2800F300F130890B962EF30B962EF40B962ECA
:100D380000000130F60775087602031CA42EA52EC4
:100D4800812E2130F4007830F3009830890BAA2ED8
:100D5800F30BAA2EF40BAA2E00327F2E0800323095
:100D68004001A5002030A6008E3196268631003A33
:100D7800031DBF2EC02EC22E0030E62E09304001C2
:100D8800BC00EE30BB00AF30890BC82EBB0BC82EA1
:100D9800BC0BC82E3D304001A800A901A90A833127
:100DA8001E238631003A031DDA2EDB2EDC2EC02EE0
:100DB800D43040013E063D040319E32EE52E0130F0
:100DC800E62E00300800730874040319EC2EED2E8B
:100DD800142F0130F700F72E0130F335F40D890B8D
:100DE800F12E0130F707F41FFA2EFB2EF02E7408AF
:100DF8007602031D012F73087502031C042F052FAB
:100E0800092F7308F5027408F63B0130F436F30C29
:100E1800890B0A2F0130F702031D132F142FFB2E05
:100E28007608F4007508F30008000430F000430168
:100E38000F1C1F2F202F482F400158085904031951
:100E4800262F272F372F560886005708870043017B
:100E58000C08810001304001D6070030D73D013031
:100E6800D8020030D93B5808590403193C2F3D2FAC
:100E7800412F430191121116492F430191109116E8
:100E880011160730F000492F91157008080040012D
:100E9800A000FF30A500A101A2012008A10073084D
:100EA800A200A4012408213E860087010108A506A6
:100EB800A301A51F602F612F652F2535313AA500A5
:100EC800672F2535A5000130A30708302302031C2E
:100ED8006E2F6F2F5D2F0130A40702302402031CF0
:100EE800762F772F562F25080800F5008F316827B1
:100EF8008731F60076080319822F832F852F76080D
:100F0800A42F750843018C008E31DE268731F60048
:100F180076080319902F912F922F832F8E314B260D
:100F28008731F600760803199A2F9B2F9C2F832F61
:100F38004301111FA02FA12FA32F0130A42F003090
:100F480008004001540855040319AB2FAC2FBF2FDC
:100F58000130D4020030D53B520886005308870080
:100F6800010843018C0001304001D2070030D33D15
:100F78000330F000CE2F5A080319C32FC42FCA2FED
:100F8800DA01430191140130F000CE2F8E311B2677
:100F98008731F000700808008F3168278731F70023
:100FA80077080319D82FD92FDB2F7708EE2F4301A5
:100FB80011159130F3000430F4008F31C2278731C6
:100FC800F70077080319E92FEA2FEB2FD92F8E3175
:100FD8004B2687310800F300430190018F01083048
:100FE80092000830900073088D004E010F108F108A
:080FF8004301901608000800F7
:101BC8004001CF01083008008F3112278D310800FD
:101BD8008531D3258D3108004001503543018C00F3
:101BE800033008008E311B268D31F0007008080084
:101BF8008E3122268D31F0007008080074084001EB
:101C0800EB007308EA000800640080010131890BC9
:101C1800092E0034FE0012001E00FE0B0F2E0034A9
:101C280003144001500D43018C00043008004301A7
:101C380011158E3171268E31003008004301901243
:101C480090164001CF0100300800400115107E01B8
:101C5800591040011B140800C8340034E834033418
:101C6800013400340034603051018D008F0191013E
:101C7800063093002030920008004E010C1000300E
:101C8800F3000030F4008E3102268E3108004E0138
:101C98008F1C4F2E502E532E8F100230542E003092
:101CA80008008E3137268E318331D4238E318E3120
:101CB80062268E318E3141268E31080080304301F4
:101CC8008F0008309000910192014F308D004E0135
:101CD800191499144301901608004001CF010030EF
:101CE800D100FF30D000D201D301D601D701DC01E9
:101CF8004E010F108F104301901310130800F500C8
:101D0800F401751C882E892E8B2E7308F407031096
:101D1800F30D0310F50C7508031D932E942E852ED4
:101D28007408080040012608A8002508A9002830E2
:101D3800A0000230A100583085315B258E3140016A
:101D4800A70027080319A92EAB2E0130AC2E0030AE
:101D580008008F31E1278E314001A00020080319C7
:101D6800B62EB72EBD2E8731D0278E3140012008E0
:101D7800C42EB030873179278E314001A000B72EAC
:101D880008007408F7007308F600CE2E0130F30738
:101D98000030F43D73088400740885001200031DA8
:101DA800D62ED72ECA2E76087302F3007708743B16
:101DB800F40008001030F3002730F400EF2E013053
:101DC800F3020030F43B73087404031DEC2EED2E6F
:101DD800EF2E0330F62E4E010F1CF32EF42EE32EB9
:101DE8000F100030080068304001AA00E430890B69
:101DF800FB2EAA0BFB2E000003304001A50020306B
:101E0800A6008E3196268E3168304001AA00E43053
:101E1800890B0C2FAA0B0C2F00000800063040017C
:101E2800DC000330DB004E018F1040015C08F1003C
:101E3800F201F135F20D1430710784001030723D53
:101E480080388500013F8A00003F0A008F31400139
:101E5800DC000800F30073080319332F342F372FE1
:101E680040011914392F4001191000320032003294
:101E78000032400199140032003200320032400131
:101E88009910003200320032003208004001A300ED
:101E980023080319502F512F562F4030A50000302A
:101EA800A600582FA501A6012508A40076080F3919
:101EB80024078038F4000030863148268F31853079
:101EC800890B642F000008001030F3002730F4005D
:101ED800792F0130F3020030F43B73087404031DBA
:101EE800762F772F792F0330852F430111081F395B
:101EF800031D7F2F802F6D2F0F19832F842F6D2F98
:101F08000030080040013708BB003608BA00972F98
:101F18003508A6003408A5003A30A7003808A800FC
:101F28008131F0218F3140013A0884003B08850057
:101F38001200031DA02FA12F8C2FB401B50108009A
:101F48003F304001C1003C08C200C301C401C501C3
:101F5800CB01CC014230B4000030B5003E08B700D8
:101F68003D08B6004130B8008F3186278F314001D7
:101F78003C08440786008701810108001030F500FD
:101F88002730F600D32F0130F5020030F63B7508F4
:101F98007604031DD02FD12FD32F0330E02F7308E1
:101FA80086000130870001087405031DDC2FDD2F32
:101FB800C72F4E010F10003008008F3168278F316E
:101FC800F70077080319E92FEA2FEC2F7708FF2F7E
:101FD800430111149130F300F401F40A8F31C22740
:101FE8008F31F70077080319FA2FFB2FFC2FEA2F00
:101FF8008E314B268F31080062340E3400340034A1
:102008000034003400340034003400340034003428
:102018000034003400340034003400340034003418
:10202800E4340D3414340E34F0340D34A53407344C
:1020380019340734F6340D34FC340D341B340E34A3
:1020480022340E342134543456344F34433420343B
:10205800483449343A3420342534753420347034C3
:102068007034623400343134353473342034693494
:102078006E3469347434203470346534723469349D
:102088006F3464340034533465346C3466342D341E
:1020980074346534733474342034463441344934E8
:1020A8004C340034533465346C3466342D34743411
:1020B80065347334743420345034413453345334D5
:1020C80000345334473450343334303420346E348D
:1020D8006F342034413443344B3421340034433496
:1020E8006F346E34743469346E34753469346E34D4
:1020F80067342E342E342E3400345734613472341D
:102108006D3469346E3467342034753470342E3449
:102118002E342E340034533447345034333430346E
:10212800203466346F3475346E34643421340034AA
:10213800533465346C3466342D34743465347334F4
:1021480074342E342E342E340034543456344F34F0
:1021580043343A34203425347534203470347034A0
:1021680062340034523465347434723479346934E6
:102178006E3467342E342E342E34003449343234DD
:102188004334203469346E34693474342E342E3434
:102198002E34003443344F3432343A342034253426
:1021A80075342034703470346D34003452346534EE
:1021B8006134643420346534723472346F34723468
:1021C80000344534723472343A342034253475344A
:0221D8000034D1
:020000040001F9
:0A000E008F3FFF3F9F3FFF3FFF3F82
:00000001FF
