:0400000080312828FB
:100008007E14803100308600003087000B1F0D28D9
:100018000E2826284E01991C122813281B288F1CED
:10002800162817281B288E31542680312628191C9B
:100038001E281F2826280F1C2228232826288E3110
:10004800582680317E10090080312A28F801F901EC
:10005800FA014F3084000030850014308E31742648
:100068008031203084000130850020308E317426A4
:1000780080317E104001803141288E31B426803194
:100088008E318F26803115304001CE004B30CD00A7
:10009800BE30890B4D28CD0B4D28CE0B4D280000C6
:1000A80082315D228031B1304001A7009030A80034
:1000B80084311924803161304001A7009030A800B4
:1000C8008331C82380314F308E31D026803168305B
:1000D8004001CD00E430890B6F28CD0B6F2800005C
:1000E8008F31092780314101D400540803197D2834
:1000F8007E28A528A0304001BC00D430BD00903037
:10010800BE00410154084001CD00CE014D08BF009A
:100118004E08C0008731CE27803154304001A700F7
:100128009030A800843119248031A0304001A70004
:100138000030A8008331C8238031023086311F2661
:1001480080317E304001A7009030A8008431192406
:1001580080318B304001A7009030A8008331C8233C
:10016800803115304001CE004B30CD00BE30890BB8
:10017800BB28CD0BBB28CE0BBB28000086315426EC
:1001880080314101D3005308031DCB28CC28EA282D
:1001980036304001A7009030A800843119248031FE
:1001A80062304001A7009030A8008331C823803115
:1001B80052304001CE002B30CD000030890BE228B0
:1001C800CD0BE228CE0BE22800000629453040017D
:1001D800A7009030A8008431192480316130400193
:1001E800A7009030A8008331C8238031293040010E
:1001F800CE009630CD007F30890B0029CD0B002929
:10020800CE0B00298F315327803170304001A70071
:100218009030A80084311924803126304001A7008D
:100228009030A8008331C823803140011B14D53099
:10023800BB000030BC008431B8248031003A031977
:100248002629272962294101590803192C292D2912
:100258006229B1304001BC00BD30BD009030BE0005
:10026800410156084001C000410155084001BF0046
:100278008731CE278031C2304001BC009830BD00A4
:100288009030BE00410158084001C00041015708A4
:100298004001BF008731CE278031B1304001A7002F
:1002A8000030A800843119248031C2304001A700F1
:1002B8000030A8008331C82380317229C930400139
:1002C800A7009030A800843119248031A53040015E
:1002D800A7009030A8008331C82380311530400131
:1002E800CE004B30CD00BE30890B7829CD0B782954
:1002F800CE0B7829000040011B1015304001CE00BC
:100308004B30CD00BE30890B8729CD0B8729CE0B0A
:1003180087290000192980312828400127088600EC
:100328008701403FA900413FAA00290884002A0804
:1003380085001200253A031DA229A329422A27086D
:10034800860087010130810741310318810ADD01E8
:10035800DE010030FA00FF30DF00FF30E000270840
:1003680086008701403FAD00413FAE002D08840064
:100378002E0885001200753A031DC329C429382A9E
:10038800280886008701010884008501023081075A
:10039800003FAF00013FB0002D08013EA90000302A
:1003A8002E3DAA002708860087012908C03F2A0891
:1003B800C13F2F2A2030B3000130B3023308203E5A
:1003C8008600013087000A30F3000030F40030085E
:1003D800F6002F08F5008631882681317308303EF3
:1003E80081000A30F3000030F40040013008F600C4
:1003F8002F08F50085313925813174084001B00096
:100408007308AF002F08300403190B2A0C2A282A76
:100418003308031D102A112AE029282A3308203E10
:100428008600013087000108A900AA012908F30005
:100438002A08F4002608F6002508F50083311C2355
:10044800813101304001B30720303306031D2D2AC6
:100458002E2A122A5C2A2D0884002E0885000008FE
:10046800753A0319DE29382A4001270886008701D2
:100478000130810741310318810A5C2A2708860068
:100488008701403FA900413FAA00290884002A08A3
:1004980085000008AB00AC012B08F3002C08F40021
:1004A8002608F6002508F50083311C238131382AF7
:1004B800080040019A170530F7000F30F600F130B8
:1004C800890B642AF60B642AF70B642A000038307B
:1004D800F40000308531E92582316830F600E430D7
:1004E800890B742AF60B742A00320830F4000030A5
:1004F8008531E92582316830F600E430890B822A9B
:10050800F60B822A0032F401F40A00308531E9251D
:100518008231D030F600CA30890B902AF60B902A27
:100528000630F40000308531E92582316830F60064
:10053800E430890B9D2AF60B9D2A00320C30F4001A
:1005480000308531E92582310B30F6006230890BA5
:10055800AB2AF60BAB2A00320230F40000308531AA
:10056800E92582311530F600C630890BB92AF60B19
:10057800B92A003208000330F30040012908873106
:10058800EC2782314001B4002B30A2003408A300CC
:10059800583084316A2482314001B5003508031986
:1005A800D62AD72AD92A00301B2BBA01142B03309C
:1005B800F3003A088731EC2782314001B900390845
:1005C8002B3E860087010108B7003908013E2B3E03
:1005D800860087010108B8003908023E2B3E8600D4
:1005E80087010108B6003808F30037088631EC2681
:1005F8008231400136060319022B032B042BD72A1C
:100608003A08AA000130AA35890B072B28082A07BF
:10061800860087013808C03F3708C13F0130BA0754
:1006280029083A02031C192B1A2BDB2A013008006F
:10063800750876040319212B222B282B75087604BC
:10064800031D272B282B2D2B73088731FF27833178
:10065800742B7508860087014931160001040319B7
:10066800362B372B562B7508860087014931403FBA
:100678004001A000413FA100750886008701423172
:10068800403FA200413FA3002308803AA40021086C
:10069800803A2402031D522B200822020318552BEE
:1006A800562B742B75088600870142317508840023
:1006B80076088500003F4001A000013FA100403FAF
:1006C80020078400413F213D85007308800075089C
:1006D8008600870142310130810741310318810AC0
:1006E800080040019801990130309A009B019C0153
:1006F800FF309200FC3093007F309400FF3095006B
:100708000F309600FF307E01B800FC30C3004F3038
:10071800CE00FF30D9000730E400B901C401CF0191
:10072800DA01E501BA01C501D001DB01E601FF30BC
:10073800BB00FF30C600FF30D100FF30DC000730BF
:10074800E700FF30BC00FF30C700FF30D200FF30A9
:10075800DD000F30E80014307D01C50015307E0142
:10076800A40015307D01C60016307E01A500BD012C
:10077800BE01BF01C801C901CA01D301D401D50115
:10078800E901EA01EB010800F60101308F31A627E3
:10079800833140012808F4002708F3008F3121270E
:1007A800833173084001AB00AE01AF0140012F084F
:1007B800803AA90080302902031DE42B2B082E0261
:1007C800031CE72BE82BEE2B20304001AC00003057
:1007D800AD00FC2B400127082E07840028082F3D78
:1007E80085000008A900AA012908AC002A08AD0064
:1007F8002C08F40001308531E92583318530890BD7
:10080800032C000001304001AE070030AF3D2F0837
:10081800803AA90080302902031D142C10302E02C2
:10082800031C172C182CDA2B0800F60100308F3126
:10083800A627843140012808F4002708F3008F31E7
:100848002127843173084001AB00AE01AF0140019C
:100858002F08803AA90080302902031D352C2B0867
:100868002E02031C382C392C3F2C20304001AC00C0
:100878000030AD004D2C400127082E0784002808C1
:100888002F3D85000008A900AA012908AC002A0804
:10089800AD002C08F40001308531E925843185301C
:1008A800890B542C000001304001AE070030AF3DE9
:1008B8002F08803AA90080302902031D652C1030CA
:1008C8002E02031C682C692C2B2C08004001A40064
:1008D8002308031D702C712C732C0030B72C873122
:1008E800902784314001A700270803197C2C7D2C10
:1008F800802C40012708B72C0314240D87311A27B0
:1009080084314001A700270803198B2C8C2C902CCC
:100918008731712784317D2CA601AE2C2308FF3E38
:100928002602031C982C9A2C01309B2C0030A50021
:1009380022082607A0002508A1008531AF258431AB
:100948004001A70027080319AA2CAB2CAC2C8C2C2F
:100958000130A60723082602031CB32CB42C922CC2
:10096800873171278431080040013B0886008701E0
:10097800443181010830A5002030A6008E31F226CE
:100988008431003A031DC92CCA2CCC2C0030FB2C16
:100998007D304001BD00AB30890BD02CBD0BD02C75
:1009A80000323E304001A8000230A9008231BF2247
:1009B8008431003A031DE12CE22CE32CCA2C4001BF
:1009C8003B0886003C0887003E08C03F3F08C13FFF
:1009D8003B088600870142314008C03F4108C13FBB
:1009E8003B0886008701443101308100013008004E
:1009F8004001A2008731902784314001A4002408D7
:100A08000319072D082D0B2D40012408382D2235F8
:100A1800FE3987311A2784314001A40024080319BC
:100A2800162D172D1B2D873171278431082DA30111
:100A38002F2D2008230786008701010887311A27F0
:100A480084314001A400240803192B2D2C2D2D2DB1
:100A5800172D0130A30721082302031C342D352D3F
:100A68001D2D87317127843108004001A101A201A1
:100A7800730874040319412D422D6F2D0130A00015
:100A88004C2D0130F335F40D890B462D0130A007AC
:100A9800F41F4F2D502D452D0130A135A20D890B86
:100AA800512D74087602031D5B2D73087502031C13
:100AB8005E2D5F2D642D7308F5027408F63B211432
:100AC8000130F436F30C890B652D0130A002031DAB
:100AD8006E2D6F2D502D2208F4002108F300080018
:100AE8004E010F1043010F1E7A2D7B2D7F2D8E3165
:100AF800E02685319A2D8F1A822D832D8D2D111F79
:100B0800862D872D8D2D05304001DC000130DB005E
:100B18009A2D8F1E902D912D9A2D111F942D952D64
:100B28009A2D05304001DC000230DB0040015C08F2
:100B3800F100F201F135F20D143071078400103024
:100B4800723D80388500013F8A00003F0A008531E8
:100B58004001DC0008008F31C4278531F700770891
:100B68000319B72DB82DBA2D7708E82D43011013B6
:100B780091158F313A278531F70077080319C52D6C
:100B8800C62DC72DB82D40012008860087014301D6
:100B98000C088100400121080319D32DD62D4301EB
:100BA8009116D82D4301911211169130F30010308F
:100BB800F4008731AF278531F70077080319E52D51
:100BC800E62DE72DB82D003008004001A0009A134B
:100BD80000320032003200324001200801398F31E2
:100BE8008A27853100308F318A27853107304001C7
:100BF800A1000030A2007408F500210A042EF53681
:100C0800890B032E750801398F318A278531FF300A
:100C18004001A107FF30A23DA21F132E142EFF2D65
:100C2800003200320032003240019A17A030003200
:100C3800890B1B2E0800F500F601402E40011B14FD
:100C48000530F4000F30F300F130890B292EF30B37
:100C5800292EF40B292E000040011B100530F4004A
:100C68000F30F300F130890B372EF30B372EF40BCE
:100C7800372E00000130F60775087602031C452E52
:100C8800462E222E2130F4007830F3009830890B5C
:100C98004B2EF30B4B2EF40B4B2E0032202E08005C
:100CA80032304001A5002030A6008E31F226863170
:100CB800003A031D602E612E632E0030872E093006
:100CC8004001BC00EE30BB00AF30890B692EBB0B76
:100CD800692EBC0B692E3D304001A800A901A90A64
:100CE8008231BF228631003A031D7B2E7C2E7D2E59
:100CF800612ED43040013E063D040319842E862E11
:100D08000130872E003008007308740403198D2EF3
:100D18008E2EB52E0130F700982E0130F335F40DE4
:100D2800890B922E0130F707F41F9B2E9C2E912ED3
:100D380074087602031DA22E73087502031CA52EE3
:100D4800A62EAA2E7308F5027408F63B0130F43675
:100D5800F30C890BAB2E0130F702031DB42EB52E10
:100D68009C2E7608F4007508F30008000430F000A3
:100D780043010F1CC02EC12EE92E4001580859040A
:100D88000319C72EC82ED82E560886005708870084
:100D980043010C08810001304001D6070030D73DDF
:100DA8000130D8020030D93B580859040319DD2E08
:100DB800DE2EE22E430191121116EA2E4301911004
:100DC800911611160730F000EA2E911570080800E8
:100DD8004001A000FF30A500A101A2012008A10048
:100DE8007308A200A4012408213E86008701010897
:100DF800A506A301A51F012F022F062F2535313A7D
:100E0800A500082F2535A5000130A30708302302C7
:100E1800031C0F2F102FFE2E0130A40702302402CE
:100E2800031C172F182FF72E25080800F5008F31FF
:100E3800C4278731F60076080319232F242F262F7D
:100E48007608452F750843018C008F313A27873182
:100E5800F60076080319312F322F332F242F8E31C5
:100E6800AA268731F600760803193B2F3C2F3D2F21
:100E7800242F4301111F412F422F442F0130452FAA
:100E88000030080040015408550403194C2F4D2F19
:100E9800602F0130D4020030D53B52088600530839
:100EA8008700010843018C0001304001D20700305F
:100EB800D33D0330F0006F2F5A080319642F652FB4
:100EC8006B2FDA01430191140130F0006F2F8E313E
:100ED80081268731F000700808008F31C4278731D8
:100EE800F70077080319792F7A2F7C2F77088F2F2F
:100EF800430111159130F3000430F4008731AF2716
:100F08008731F700770803198A2F8B2F8C2F7A2FB8
:100F18008E31AA26873108008F31C4278731F70020
:100F280077080319982F992F9B2F7708AE2F430125
:100F380011149130F300F401F40A8731AF27873197
:100F4800F70077080319A92FAA2FAB2F992F8E31F5
:100F5800AA26873108001030F5002730F600C02F88
:100F68000130F5020030F63B75087604031DBD2FED
:100F7800BE2FC02F0330CD2F7308860001308700A5
:100F880001087405031DC92FCA2FB42F4E010F1075
:100F9800003008003F304001C1003C08C200C301D6
:100FA800C401C501CB01CC014230B4000030B5000A
:100FB8003E08B7003D08B6004130B8008F31E2273F
:100FC800873140013C0844078600870181010800F9
:100FD800F500F401751CF12FF22FF42F7308F407B4
:100FE8000310F30D0310F50C7508031DFC2FFD2FDE
:080FF800EE2F74080800080048
:101CA0004001CF01083008008F316E278E310800C7
:101CB000853174258E3108004001503543018C0078
:101CC000033008008E3181268E31F0007008080044
:101CD0008E3188268E31F0007008080074084001AB
:101CE000E4007308E3000800640080010131890BFF
:101CF000752E003403144001500D43018C00043054
:101D00000800430111158E31E0268E3100300800A5
:101D10004301901290164001CF01003008004001AD
:101D200015107E01591040011B140800603051014C
:101D30008D008F0191010630930020309200080041
:101D40004E010C100030F3000030F4008E316E268E
:101D50008E3108004E018F1CAE2EAF2EB22E8F108A
:101D60000230B32E003008008E3196268E3183313A
:101D700075238E318E31C1268E318E31A0268E3163
:101D80000800803043018F000830900091019201DB
:101D90004F308D004E01191499144301901608001C
:101DA000F300430190018F01083092000830900049
:101DB00073088D004E010F108F104301901608001C
:101DC0004001CF010030D100FF30D000D201D3015B
:101DD000D601D701DC014E010F108F104301901383
:101DE0001013080040012608A8002508A900283083
:101DF000A0000230A10058308431FC248E31400113
:101E0000A70027080319052F072F0130082F0030DE
:101E10000800873190278F314001A0002008031966
:101E2000122F132F192F873171278F31400120086E
:101E3000202FB03087311A278F314001A000132F97
:101E400008007408F7007308F6002A2F0130F30722
:101E50000030F43D73088400740885001200031DEF
:101E6000322F332F262F76087302F3007708743B46
:101E7000F40008001030F3002730F4004B2F01303D
:101E8000F3020030F43B73087404031D482F492FFC
:101E90004B2F0330522F4E010F1C4F2F502F3F2F2F
:101EA0000F100030080068304001AA00E430890BB0
:101EB000572FAA0B572F000003304001A5002030F8
:101EC000A6008E31F2268F3168304001AA00E4303E
:101ED000890B682FAA0B682F00000800063040010C
:101EE000DC000330DB004E018F1040015C08F10084
:101EF000F201F135F20D1430710784001030723D9B
:101F000080388500013F8A00003F0A008F31400180
:101F1000DC000800F300730803198F2F902F932F14
:101F200040011914952F400119100032003200327F
:101F30000032400199140032003200320032400178
:101F40009910003200320032003208004001A30034
:101F500023080319AC2FAD2FB22F4030A50000305D
:101F6000A600B42FA501A6012508A40076080F3904
:101F700024078038F40000308531E9258F31853021
:101F8000890BC02F000008001030F3002730F40048
:101F9000D52F0130F3020030F43B73087404031DA5
:101FA000D22FD32FD52F0330E12F430111081F3932
:101FB000031DDB2FDC2FC92F0F19DF2FE02FC92FB7
:101FC0000030080040013708BB003608BA00F32F84
:101FD0003508A6003408A5003A30A7003808A80044
:101FE000813191218F3140013A0884003B088500FE
:101FF0001200031DFC2FFD2FE82FB401B5010800CE
:10200000C1340E3400340034003400340034003461
:102010000034003400340034003400340034003420
:10202000003400340034003450340E347A340E342A
:102030005C340E3446340734BA34063462340E3419
:1020400068340E3481340E3488340E3431343534EF
:102050007334203469346E34693474342034703409
:102060006534723469346F34643400345334653405
:102070006C3466342D3474346534733474342034E1
:102080004634413449344C340034533465346C3470
:1020900066342D34743465347334743420345034DD
:1020A000413453345334003453344734503433348C
:1020B000303420346E346F342034413443344B3464
:1020C0002134003443346F346E34743469346E34E4
:1020D000753469346E3467342E342E342E34003423
:1020E0005734613472346D3469346E34673420345B
:1020F000753470342E342E342E3400345334473437
:10210000503433343034203466346F3475346E34A4
:10211000643421340034533465346C3466342D34E3
:1021200074346534733474342E342E342E340034C5
:10213000543456344F3443343A34203425347534CF
:102140002034703470346234003452346534743462
:102150007234793469346E3467342E342E342E342C
:102160000034493432344334203469346E346934B1
:1021700074342E342E342E34003443344F343234FD
:102180003A342034253475342034703470346D344E
:10219000003452346534613464342034653472342C
:1021A00072346F34723400344534723472343A34D9
:0821B00020342534753400349D
:020000040001F9
:0A000E008F3FFF3F9F3FFF3FFF3F82
:00000001FF
