:0400000080312828FB
:100008007E14803100308600003087000B1F0D28D9
:100018000E2826284E01991C122813281B288F1CED
:10002800162817281B288231082280312628191CF7
:100038001E281F2826280F1C22282328262882311C
:10004800042280317E10090080312A28F701F80146
:10005800F901FA01FB017E10400181310D294001AF
:100068009801033099009A0101309B009C01FF30F0
:100078009200FF3093007F309400DE3095000F30FF
:100088009600FF307E01B800FC30C3007F30CE0000
:100098000E30D9000730E400B901C401CF01DA01FC
:1000A800E501BA01C501D001DB01E601FF30BB0063
:1000B800FF30C600FF30D100FF30DC000730E7001A
:1000C800FF30BC00FF30C700FF30D200FF30DD003A
:1000D8000F30E8001E307D01C9001C30CA001830FE
:1000E8007E01AD001F307D01C80017307E01AF00D2
:1000F80009307D01C50015307E01990008307D0169
:10010800C60016307E019800BD01BE01BF01C801BE
:10011800C901CA01D301D401D501E901EA01EB0102
:100128004E011616080040019A172930F60096303D
:10013800F5007F30890B9E28F50B9E28F60B9E282C
:1001480000003830F3000030813137218031083029
:10015800F3000030813137218031F301F30A003098
:100168008131372180315230F6002B30F5000030D4
:10017800890BBC28F50BBC28F60BBC2800320630CE
:10018800F30000308131372180310230F300003034
:100198008131372180310C30F30000308131372133
:1001A800803140019A1308004E010F1043010F1EC1
:1001B800DE28DF28E0280B298F1AE328E428F62810
:1001C800921FE728E828F62882310C228031F000B7
:1001D800F1017008F9007108FA00FB01430191165A
:1001E80011160B290F1DF928FA2805290F18FD28C3
:1001F800FE280B29111B012902290B29911611161A
:100208000B290F1C082909290B29911611161016FC
:1002180008008131B32181318131F7218131803169
:10022800972081310D304001A3002D30A200D73036
:10023800890B1C29A20B1C29A30B1C290032400185
:100248001B140D304001A3002D30A200D730890BBC
:100258002B29A20B2B29A30B2B29003240011B10A1
:10026800162980312828F40040019A130530890B9B
:100278003B29000074080139F2008131C321813122
:100288007308F2008131C32181310530890B4A2975
:10029800000040019A138530890B5029000008009E
:1002A800D9340134003400340034003400340034CC
:1002B800003400340034003400340034C3340134D2
:1002C8000034003400340034003400340034003486
:1002D80000340034003400344E018F1C7429752911
:1002E80079290130FB008F1083294301901F7D2954
:1002F8007E2982290230FB0090138329FB014301E8
:10030800101F8729882989291013101608008030A2
:1003180043018F00063090040130910092018D0155
:10032800FE308E004E0119149914F701F8014301AB
:10033800901612179214121408008B3401340034EA
:100348000034003400340C340234003400340034F7
:100358000034003400340034003400340034813177
:10036800ED21813180313320813181318B218131FF
:100378008131D92181318131E3218131080072082D
:10038800430196004E010F1DCA29CB29C6290F111A
:1003980043011608080000340434103401340034D2
:1003A800643404341034003400344E0119110F1130
:1003B8004301990120309A009C01970108004E01E1
:1003C8000C100030F2000030F3008131FE21813141
:1003D8000800603051018D008F01910106309300B3
:1003E800203092000800400115107E01591040018C
:1003F8001B14080073084001A1007208A00008003F
:100408008031D82082310800813170218231080082
:0604180043010C0808007E
:020000040001F9
:0A000E008F3FFF3F9F3FFF3FFF3F82
:00000001FF
