:10000000803102288731F52F4E018F1C08280928DE
:100010000C288F1002300D2800300800F200F1018A
:10002000721C1328142816287008F1070310F00D0D
:100030000310F20C7208031D1E281F2810287108D7
:100040000800813149218031F500750803192928FC
:100050002A282F2881316821803175083528B03051
:10006000813187218031F5002A2808007B08400172
:10007000C7007A08C8004730F5000230F600583053
:100080008231AD2280314001C90049080319492855
:100090004B2801304C28003008006830FC00E43068
:1000A000890B5028FC0B502800320330FA00203016
:1000B000FB008031362080316830FC00E430890B51
:1000C0005F28FC0B5F28003208007108F4007008FC
:1000D000F3006E280130F0070030F13D7008840015
:1000E000710885001200031D762877286A28730896
:1000F0007002F0007408713BF10008008830F000D5
:100100001330F1008F280130F0020030F13B70080D
:100110007104031D8C288D288F28033096284E01EA
:100120000F1C9328942883280F1000300800F0003B
:10013000700803199C289D28A02840011914A228A2
:10014000400119100032003200320032400199148F
:100150000032003200320032400199100032003289
:10016000003200320800F70077080319B828B928D0
:10017000BE284030F8000030F900C028F801F9012D
:100180007808FA0076080F397A078038F1000030D5
:100190008231122280318530890BCC280000080082
:1001A0008830F0001330F100E1280130F002003017
:1001B000F13B70087104031DDE28DF28E1280330BD
:1001C000ED28430111081F39031DE728E828D52829
:1001D0000F19EB28EC28D5280030080040015508FD
:1001E000D8005408D700FF285308FA005208F90035
:1001F0005730FB005608FC008531EC25803140016A
:1002000057088400580885001200031D0829092991
:10021000F428D201D30108005C304001DE00590807
:10022000DF00E001E101E201E801E9015F30D20015
:100230000030D3005B08D5005A08D4005E30D600E9
:100240008031EE2081314001590861078600870125
:10025000810108008830F2001330F3003B2901309F
:10026000F2020030F33B72087304031D3829392968
:100270003B290330482970088600013087000108B7
:100280007105031D442945292F294E010F10003007
:1002900008008031D0208131F400740803195129FD
:1002A0005229542974086729430111149130F00030
:1002B000F101F10A81312A218131F4007408031916
:1002C0006229632964295229803104208131080080
:1002D0008031D0208131F40074080319702971290C
:1002E000732974088629430111159130F0000430F8
:1002F000F10081312A218131F40074080319812928
:100300008229832971298031042081310800F2007B
:100310008031D0208131F30073080319902991298D
:1003200093297308B229720843018C0080317E2022
:100330008131F300730803199E299F29A02991296F
:10034000803104208131F30073080319A829A929F9
:10035000AA2991294301111FAE29AF29B1290130E2
:10036000B22900300800F100FF30F600F201F3017D
:100370007108F2007008F300F5017508723E8600FE
:1003800087010108F606F401F61FC729C829CC2900
:100390007635313AF600CE297635F6000130F4078D
:1003A00008307402031CD529D629C4290130F50769
:1003B00002307502031CDD29DE29BD2976080800FC
:1003C000700871040319E529E6290D2A0130F400AB
:1003D000F0290130F035F10D890BEA290130F407DD
:1003E000F11FF329F429E92971087302031DFA2981
:1003F00070087202031CFD29FE29022A7008F2020D
:100400007108F33B0130F136F00C890B032A0130FF
:10041000F402031D0C2A0D2AF4297308F100720856
:10042000F0000800F30040019A130032003200325D
:1004300000327308013980319720823100308031D9
:10044000972082310730F4000030F5007108F20087
:10045000740A2B2AF236890B2A2A72080139803154
:1004600097208231FF30F407FF30F53DF51F392A20
:100470003A2A262A003200320032003240019A170E
:10048000A0300032890B412A08003230FA002030B7
:10049000FB00803136208231003A031D502A512A58
:1004A000532A0030772A09304001DA00EE30D900B3
:1004B000AF30890B592AD90B592ADA0B592A5B30EC
:1004C0004001C700C801C80A85312D258231003A94
:1004D000031D6B2A6C2A6D2A512AD43040015C0618
:1004E0005B040319742A762A0130772A0030080049
:1004F000F200F301992A40011B140530F1000F307E
:10050000F000F130890B822AF00B822AF10B822A4B
:10051000000040011B100530F1000F30F000F130F9
:10052000890B902AF00B902AF10B902A00000130E1
:10053000F30772087302031C9E2A9F2A7B2A21302C
:10054000F1007830F0009830890BA42AF00BA42A2F
:10055000F10BA42A0032792A0800F70081314921E1
:100560008231F90079080319B62AB72AB92A79081D
:10057000E42A7735FE39813187218231F900790803
:100580000319C32AC42AC82A813168218231B72AB3
:10059000F801DB2A75087807860087010108813198
:1005A00087218231F90079080319D72AD82AD92A54
:1005B000C42A0130F80776087802031CE02AE12AF1
:1005C000CA2A81316821823108008031D0208231ED
:1005D000F60076080319ED2AEE2AF02A76081C2B7D
:1005E00043011013911580317E208231F600760888
:1005F0000319FB2AFC2AFD2AEE2A740886008701CB
:1006000043010C08810075080319072B0A2B4301CD
:1006100091160C2B4301911211169130F0001030FD
:10062000F10081312A218231F60076080319192B55
:100630001A2B1B2BEE2A00300800F401F50170087C
:1006400071040319242B252B522B0130F6002F2B7C
:100650000130F035F10D890B292B0130F607F11F20
:10066000322B332B282B0130F435F50D890B342B2D
:1006700071087302031D3E2B70087202031C412B8C
:10068000422B472B7008F2027108F33B74140130BF
:10069000F136F00C890B482B0130F602031D512B6B
:1006A000522B332B7508F1007408F000080040014C
:1006B000590886008701443181010830FA00203052
:1006C000FB00803136208331003A031D682B692BF3
:1006D0006B2B00309A2B7D304001DB00AB30890B57
:1006E0006F2BDB0B6F2B00325C304001C7000230F8
:1006F000C80085312D258331003A031D802B812BC5
:10070000822B692B4001590886005A0887005C0833
:10071000C03F5D08C13F59088600870142315E082D
:10072000C03F5F08C13F590886008701443101304E
:10073000810001300800F9007808031DA02BA12BCF
:10074000A32B0030E32B813149218331FC007C084D
:100750000319AB2BAC2BAE2B7C08E32B0314790DC8
:10076000813187218331FC007C080319B82BB92B18
:10077000BD2B813168218331AC2BFB01DA2B78084A
:10078000FF3E7B02031CC52BC72B0130C82B00305A
:10079000FA0077087B07F4007A08F5008231E52239
:1007A0008331FC007C080319D62BD72BD82BB92B0F
:1007B0000130FB0778087B02031CDF2BE02BBF2BEB
:1007C0008131682183310800F60100308031B32087
:1007D00083317C08F1007B08F00080316520833193
:1007E00070084001CB00CC01CD0140014D08803A9A
:1007F000C70080304702031DFF2B4B084C02031C2F
:10080000022C032C092C20304001C9000030CA0002
:10081000172C7B0840014C0784007C084D3D850067
:100820000008C700C8014708C9004808CA004908AD
:10083000F10001308231122283318530890B1E2C68
:10084000000001304001CC070030CD3D4D08803A1A
:10085000C70080304702031D2F2C10304C02031CB0
:10086000322C332CF52B0800F60101308031B320F7
:1008700084317C08F1007B08F000803165208431F0
:1008800070084001CB00CC01CD0140014D08803AF9
:10089000C70080304702031D4F2C4B084C02031C3D
:1008A000522C532C592C20304001C9000030CA0072
:1008B000672C7B0840014C0784007C084D3D850077
:1008C0000008C700C8014708C9004808CA0049080D
:1008D000F10001308231122284318530890B6E2C77
:1008E000000001304001CC070030CD3D4D08803A7A
:1008F000C70080304702031D7F2C10304C02031CC0
:10090000822C832C452C08004001980199019A0102
:100910009B019C01FF309200FC3093003F3094001B
:10092000FF3095000F309600FF307E01B800FC309C
:10093000C3000F30CE00FF30D9000730E400B9010A
:10094000C4013030CF00DA01E501BA01C501303011
:10095000D000DB01E601FF30BB00FF30C600CF3026
:10096000D100FF30DC000730E700FF30BC00FF3073
:10097000C700FF30D200FF30DD000F30E800143038
:100980007D01C6001530C50019307E01A400183065
:10099000A500BD01BE01BF01C801C901CA01D30143
:1009A000D401D501E901EA01EB01080072087304E2
:1009B0000319DB2CDC2CE22C72087304031DE12CE0
:1009C000E22CE72C70088F31BE2784312C2D720861
:1009D000860087014931160001040319F02CF12C1F
:1009E0000F2D7208860087014931403FF400413FD6
:1009F000F5007208860087014231403FF600413F12
:100A0000F7007708803AF8007508803A7802031DED
:100A10000B2D7408760203180E2D0F2D2C2D720845
:100A20008600870142317208840073088500003F08
:100A3000F400013FF500403F74078400413F753DDD
:100A400085007008800072088600870142310130FD
:100A5000810741310318810A08000330F00040018A
:100A6000480880310E2085314001D2004930F7001E
:100A70005208F800583083319B2385314001D30060
:100A800053080319442D452D472D0030892DD801D9
:100A9000822D0330F000580880310E20853140014E
:100AA000D7005708493E860087010108D50057083E
:100AB000013E493E860087010108D6005708023EE4
:100AC000493E860087010108D4005608F000550809
:100AD0008131B3218531400154060319702D712DE8
:100AE000722D452D5808FD000130FD35890B752DFF
:100AF00047087D07860087015608C03F5508C13F5B
:100B00000130D80748085802031C872D882D492D2D
:100B10000130080040019A170530F7000F30F60049
:100B2000F130890B912DF60B912DF70B912D0000D3
:100B30003830F10000308231122285316830F60001
:100B4000E430890BA12DF60BA12D00320830F10005
:100B500000308231122285316830F600E430890B92
:100B6000AF2DF60BAF2D0032F101F10A00308231CA
:100B700012228531D030F600CA30890BBD2DF60B1C
:100B8000BD2D0630F10000308231122285316830EF
:100B9000F600E430890BCA2DF60BCA2D00320C305A
:100BA000F10000308231122285310B30F6006230C4
:100BB000890BD82DF60BD82D00320230F100003011
:100BC0008231122285311530F600C630890BE62DB0
:100BD000F60BE62D003208007B0886008701403FB7
:100BE0004001C700413FC80047088400480885000D
:100BF0001200253A031DFD2DFE2D9A2E7B0886003E
:100C000087010130810741310318810AC001C10108
:100C10000030C600FF30C200FF30C3007B088600F2
:100C20008701403FCB00413FCC004B0884004C087B
:100C300085001200753A031D1E2E1F2E912E7C0872
:100C40008600870101088400850102308107003F8A
:100C5000CD00013FCE004B08013EC70000304C3DA7
:100C6000C8007B08860087014708C03F4808C13F8D
:100C7000882E2030D1000130D1025108203E86005C
:100C800087010A30F0000030F1004E08F3004D08F3
:100C9000F2008131E02185317008303E81000A3058
:100CA000F0000030F10040014E08F3004D08F20062
:100CB00083311D23853171084001CE007008CD00BD
:100CC0004D084E040319652E662E812E5108031D12
:100CD0006A2E6B2E3B2E812E5108203E8600870106
:100CE0000108C700C8014708F0004808F1007A0869
:100CF000F3007908F2008431D624853101304001B7
:100D0000D10720305106031D862E872E6C2EB42E5F
:100D10004B0884004C0885000008753A0319392EE9
:100D2000912E7B088600870101308107413103182D
:100D3000810AB42E7B0886008701403FC700413FEF
:100D4000C80047088400480885000008C900CA0197
:100D50004908F0004A08F1007A08F3007908F20027
:100D60008431D6248531912E08008F31E6278631D3
:100D70008F31CB27863115304001EB004B30EA0034
:100D8000BE30890BC12EEA0BC12EEB0BC12E000029
:100D900085318A2586317B30FB009030FC00833121
:100DA000E42386312B30FB009030FC008431342466
:100DB00086314F308F31F027863168304001EA00AC
:100DC000E430890BE12EEA0BE12E00008031212076
:100DD00086314101D40054080319EF2EF02E152F4F
:100DE000A0304001D9009E30DA009030DB00410194
:100DF00054084001EA00EB016A08DC006B08DD00E2
:100E000081310C2186311E30FB009030FC00833193
:100E1000E4238631A030FB000030FC008431342410
:100E2000863102308231782286314830FB009030A2
:100E3000FC008331E42386315530FB009030FC0008
:100E400084313424863115304001EB004B30EA0008
:100E5000BE30890B292FEA0B292FEB0B292F00001D
:100E60008231452286314101D3005308031D392FB9
:100E70003A2F562F0030FB009030FC008331E423E2
:100E800086312C30FB009030FC00843134248631D4
:100E900052304001EB002B30EA000030890B4E2F1E
:100EA000EA0B4E2FEB0B4E2F0000702F0F30FB0084
:100EB0009030FC008331E42386312B30FB009030EE
:100EC000FC0084313424863129304001EB00963017
:100ED000EA007F30890B6A2FEA0B6A2FEB0B6A2F2F
:100EE00080314D2086313A30FB009030FC00833158
:100EF000E42386310030FB008830FC008431342448
:100F0000863140011B14D530D9000030DA0083311E
:100F100057238631003A03198E2F8F2FC82F410196
:100F200059080319942F952FC82FB1304001D900CB
:100F30008730DA009030DB00410156084001DD00C7
:100F4000410155084001DC0081310C218631C2305D
:100F50004001D9006230DA009030DB0041015808CE
:100F60004001DD00410157084001DC0081310C21C6
:100F70008631B130FB000030FC008331E423863140
:100F8000C230FB000030FC00843134248631D62F7F
:100F90009330FB009030FC008331E42386316F30C6
:100FA000FB009030FC008431342486311530400140
:100FB000EB004B30EA00BE30890BDC2FEA0BDC2F54
:100FC000EB0BDC2F000040011B1015304001EB0043
:100FD0004B30EA00BE30890BEB2FEA0BEB2FEB0B0B
:100FE000EB2F0000812F8031022820308400003058
:100FF000850027308F31C527873140018631B52ED6
:10100000313435347334203469346E346934743493
:10101000203470346534723469346F34643400348D
:101F7C00080071084001ED007008EC0008006400D6
:101F8C0080010131890BC62F0034400115107E01F0
:101F9C00591040011B140800603051018D008F0155
:101FAC009101063093002030920008004E010C1075
:101FBC000030F0000030F1008F31BF278F31080066
:101FCC008F31D2278F31843184248F318F31DC27AC
:101FDC008F310800F000430190018F01083092000E
:101FEC000830900070088D004E010F108F104301C7
:101FFC0090160800533465346C3466342D347434C4
:10200C0065347334743420344634413449344C349C
:10201C000034533465346C3466342D347434653484
:10202C0073347434203450344134533453340034C6
:10203C005334473450343334303420346E346F34AA
:10204C002034413443344B342134003443346F3422
:10205C006E34743469346E34753469346E34673468
:10206C002E342E342E3400345734613472346D34A3
:10207C0069346E3467342034753470342E342E3415
:10208C002E34003453344734503433343034203409
:10209C0066346F3475346E34643421340034533404
:1020AC0065346C3466342D34743465347334743460
:1020BC002E342E342E340034543456344F344334AE
:1020CC003A3420342534753420347034703462340E
:1020DC0000345234653474347234793469346E3467
:1020EC0067342E342E342E34003449343234433495
:1020FC00203469346E34693474342E342E342E34D6
:10210C00003443344F3432343A342034253475346B
:10211C002034703470346D3400345234653461348E
:10212C00643420346534723472346F347234003455
:10213C004534723472343A342034253475340034D6
:020000040001F9
:0A000E008F3FFF3F9F3FFF3FFF3F82
:00000001FF
