:0400000080314028E3
:100008007E14803100308600003087000B1F0D28D9
:100018000E283E284E01991D122813281B288F1DD3
:10002800162817281B288231012280313E28191DE5
:100038001E281F2827280F1D22282328272881311A
:10004800FD2180313E28991C2A282B2833288F1C13
:100058002E282F2833288231092280313E28191C66
:10006800362837283E280F1C3A283B283E2882315C
:10007800052280317E10090080314228F001F1010B
:10008800F201F301F401F501F601F7014001A201C3
:10009800A3017E10400181311E29400198010330DF
:1000A800990018309A0001309B009C01FF309200A3
:1000B800FF309300FF309400FE3095000F3096001B
:1000C800FF307E01B800FC30C300E730CE00FE30C0
:1000D800D9000730E400B901C401CF01DA01E50114
:1000E800BA01C501D001DB01E601FF30BB00FF30DA
:1000F800C600FF30D100FF30DC000730E700FF30DA
:10010800BC00FF30C700FF30D200FF30DD000F30E9
:10011800E80013307D01C50015307E01A3001430BE
:100128007D01C60016307E01A40009307D01C8009B
:1001380017307E01990008307D01C90018307E0112
:100148009800BD01BE01BF01C801C901CA01D301A0
:10015800D401D501E901EA01EB014E0116160800A8
:100168004E010F114301191EBA28BB28BC28E728E5
:10017800991ABF28C028D2289C1FC328C428D2286F
:1001880082310D228031F800F9017808F0007908F1
:10019800F100F60143019B161B16E728191DD52807
:1001A800D628E1281918D928DA28E7281B1BDD28C2
:1001B800DE28E7289B161B16E728191CE428E528E3
:1001C800E7289B161B161A1608004E010F1043014C
:1001D8000F1EEF28F028F1281C298F1AF428F5287B
:1001E8000729921FF828F92807298231102280311F
:1001F800F800F9017808F4007908F500F7014301DF
:10020800911611161C290F1D0A290B2916290F18DA
:100218000E290F291C29111B122913291C29911693
:1002280011161C290F1C19291A291C299116111697
:10023800101608008131CC2181318131F0218131C2
:100248000D304001A5002D30A400D730890B2A2994
:10025800A40B2A29A50B2A29003240011B140D30B2
:100268004001A5002D30A400D730890B3929A40BF3
:100278003929A50B3929003240011B102429803166
:1002880040284E018F1D49294A294E290130F60080
:100298008F11582943019A1F52295329572902308F
:1002A800F6009A135829F60143011A1F5C295D29A3
:1002B8005E291A131A1608004E018F1C6429652935
:1002C80069290130F7008F1073294301901F6D29A8
:1002D8006E2972290230F70090137329F701430140
:1002E800101F7729782979291013101608008030F3
:1002F8004301990006309A0401309B009C01970144
:10030800FE3098004E01191599154001A201A3016C
:1003180043019A161C179C141C14080080304301D2
:100328008F00063090040130910092018D01FE305B
:100338008E004E0119149914F201F301430190162D
:1003480012179214121408007B340134003400345C
:10035800003400340D3402340034003400340034E6
:100368000034003400340034003400349234013452
:1003780000340034003400341034023400340034C3
:1003880000340034003400340034003400340034C5
:100398008131E621813180315120813181319221B1
:1003A800813181317B2181318131DC21813108002A
:1003B8004E010C100030FA000030FB008131F721AB
:1003C80081310800603051018D008F0191010630A4
:1003D8009300203092000800400115107E0159104A
:1003E80040011B1408007B084001A1007A08A00006
:1003F80008008031B42081310800813145218231E3
:1004080008008031E9208231080081316021823181
:0E041800080043011608080043010C08080004
:020000040001F9
:0A000E008F3FFF3F9F3FFF3FFF3F82
:00000001FF
