:08000000803102288731F12F45
:10019600080071084101C5007008C4000800640029
:1001A60080010131890BD3280034400115107E01EE
:1001B600591040011B140800603051018D008F0159
:1001C6009101063093002030920008004E010C1079
:1001D6000030F0000030F1008031CC208031080082
:1001E6008031DF2080318431FA2480318031E9206A
:1001F600803108004E018F1C0129022905298F1024
:100206000230062900300800F000430190018F01FA
:100216000830920070088D00283090004E010F10B3
:100226008F100800F200F101721C1A291B291D29E2
:100236007008F1070310F00D0310F20C7208031D8D
:100246002529262917297108080043011114913020
:10025600F000F101F10A823128228131F40074089C
:10026600031936293729392974083C298031FD209C
:1002760081310800430111159130F0000430F1007E
:10028600823128228131F400740803194B294C2944
:100296004E29740851298031FD20813108007B08E0
:1002A6004001A0007A08A1002030F5000230F600D7
:1002B600583083315B2381314001A20022080319A3
:1002C6006529672901306829003008006830FC007C
:1002D600E430890B6C29FC0B6C2900320330FA00E0
:1002E6002030FB008131522181316830FC00E4303E
:1002F600890B7B29FC0B7B29003208007108F4006E
:100306007008F3008A290130F0070030F13D7008CB
:100316008400710885001200031D922993298629FD
:1003260073087002F0007408713BF1000800E830B1
:10033600F0000330F100AB290130F0020030F13B50
:1003460070087104031DA829A929AB290330B22915
:100356004E010F1CAF29B0299F290F10003008004D
:10036600F00070080319B829B929BC2940011914ED
:10037600BE2940011910003200320032003240011D
:1003860099140032003200320032400199100032D6
:100396000032003200320800F70077080319D4292A
:1003A600D529DA294030F8000030F900DC29F801B7
:1003B600F9017808FA0076080F397A078038F100D3
:1003C60000308231F52281318530890BE829000021
:1003D600080040012E08B1002D08B000FD292C08A8
:1003E600FA002B08F9003030FB002F08FC0087319B
:1003F600242781314001300884003108850012002D
:10040600031D062A072AF229AB01AC010800353084
:100416004001B7003208B800B901BA01BB01C101F9
:10042600C2013830AB000030AC003408AE003308EF
:10043600AD003730AF008131EC2182314001320806
:100446003A078600870181010800E830F200033090
:10045600F300392A0130F2020030F33B72087304CC
:10046600031D362A372A392A0330462A70088600A1
:100476000130870001087105031D422A432A2D2AEF
:100486004E010F1000300800F200720843018C0084
:1004960081319A218231F30073080319532A542AB1
:1004A600562A7308682A8031FD208231F3007308CA
:1004B60003195E2A5F2A602A542A4301111F642AFF
:1004C600652A672A0130682A003008004301911521
:1004D60081319A218231F60076080319732A742A2B
:1004E600762A7608952A74088600870143010C0847
:1004F600810075080319802A832A43019116852AEB
:100506004301911211169130F0001030F100823142
:1005160028228231F60076080319922A932A942A11
:10052600742A00300800F100FF30F600F201F301F2
:100536007108F2007008F300F5017508723E860036
:1005460087010108F606F401F61FAA2AAB2AAF2A8C
:100556007635313AF600B12A7635F6000130F407E1
:1005660008307402031CB82AB92AA72A0130F507F5
:1005760002307502031CC02AC12AA02A7608080088
:10058600700871040319C82AC92AF02A0130F40038
:10059600D32A0130F035F10D890BCD2A0130F4074D
:1005A600F11FD62AD72ACC2A71087302031DDD2A29
:1005B60070087202031CE02AE12AE52A7008F2029A
:1005C6007108F33B0130F136F00C890BE62A013055
:1005D600F402031DEF2AF02AD72A7308F1007208E5
:1005E600F0000800F30040019A1300320032003296
:1005F6000032730801398131B321823100308131F3
:10060600B32182310730F4000030F5007108F200A2
:10061600740A0E2BF236890B0D2B720801398131C3
:10062600B3218231FF30F407FF30F53DF51F1C2B57
:100636001D2B092B003200320032003240019A177E
:10064600A0300032890B242B08003230FA0020300B
:10065600FB00813152218331003A031D332B342BA9
:10066600362B00305A2B09304001B300EE30B20071
:10067600AF30890B3C2BB20B3C2BB30B3C2B3430ED
:100686004001A000A101A10A8531A3258331003ACA
:10069600031D4E2B4F2B502B342BD43040013506E7
:1006A60034040319572B592B01305A2B00300800FC
:1006B600F700813128218331F90079080319642B69
:1006C600652B672B7908922B7735FE3982314722C5
:1006D6008331F90079080319712B722B762B81313E
:1006E6003D218331652BF801892B75087807860033
:1006F60087010108823147228331F90079080319FD
:10070600852B862B872B722B0130F807760878020B
:10071600031C8E2B8F2B782B81313D2183310800D2
:10072600F401F5017008710403199A2B9B2BC82B51
:100736000130F600A52B0130F035F10D890B9F2B0A
:100746000130F607F11FA82BA92B9E2B0130F4359B
:10075600F50D890BAA2B71087302031DB42B7008C3
:100766007202031CB72BB82BBD2B7008F20271085E
:10077600F33B74140130F136F00C890BBE2B0130BB
:10078600F602031DC72BC82BA92B7508F1007408A8
:10079600F0000800400132088600870144318101DB
:1007A6000830FA002030FB00813152218331003AB3
:1007B600031DDE2BDF2BE12B0030102C7D3040019A
:1007C600B400AB30890BE52BB40BE52B003235308A
:1007D6004001A0000230A1008531A3258331003AF3
:1007E600031DF62BF72BF82BDF2B40013208860072
:1007F600330887003508C03F3608C13F32088600F7
:10080600870142313708C03F3808C13F32088600A9
:10081600870144310130810001300800F900780871
:10082600031D162C172C192C0030592C8131282128
:100836008431FC007C080319212C222C242C7C08F2
:10084600592C0314790D823147228431FC007C082F
:1008560003192E2C2F2C332C81313D218431222C4F
:10086600FB01502C7808FF3E7B02031C3B2C3D2CE1
:1008760001303E2C0030FA0077087B07F4007A0836
:10088600F500823169228431FC007C0803194C2C66
:100896004D2C4E2C2F2C0130FB0778087B02031CB5
:1008A600552C562C352C81313D2184310800F6011A
:1008B60000308131CF2184317C08F1007B08F000C3
:1008C60081318121843170084001A400A501A6016F
:1008D60040012608803AA00080302002031D752CB6
:1008E60024082502031C782C792C7F2C203040010B
:1008F600A2000030A3008D2C7B0840012507840050
:100906007C08263D85000008A000A1012008A20061
:100916002108A3002208F10001308231F52284313A
:100926008530890B942C000001304001A50700306A
:10093600A63D2608803AA00080302002031DA52C83
:1009460010302502031CA82CA92C6B2C0800F601DC
:1009560001308131CF2184317C08F1007B08F00021
:1009660081318121843170084001A400A501A601CE
:1009760040012608803AA00080302002031DC52CC5
:1009860024082502031CC82CC92CCF2C203040017A
:10099600A2000030A300DD2C7B084001250784005F
:1009A6007C08263D85000008A000A1012008A200C1
:1009B6002108A3002208F10001308231F52284319A
:1009C6008530890BE42C000001304001A50700307A
:1009D600A63D2608803AA00080302002031DF52C93
:1009E60010302502031CF82CF92CBB2C0800400102
:1009F600980199019A019B019C01FF309200FC30FD
:100A060093003F309400FF3095000F309600FF3082
:100A16007E01B800FC30C3000F30CE00FF30D90095
:100A26000730E400B901C4013030CF00DA01E50136
:100A3600BA01C5013030D000DB01E601FF30BB0052
:100A4600FF30C600FF30D100FF30DC000730E70082
:100A5600FF30BC00FF30C700FF30D200FF30DD00A2
:100A66000F30E80014307D01C6001530C50019307E
:100A76007E01A4001830A500BD01BE01BF01C8015A
:100A8600C901CA01D301D401D501E901EA01EB018B
:100A96000800720873040319512D522D582D72083F
:100AA6007304031D572D582D5D2D70088031CB2002
:100AB6008531A22D7208860087014931160001048E
:100AC6000319662D672D852D720886008701493129
:100AD600403FF400413FF50072088600870142312D
:100AE600403FF600413FF7007708803AF800750866
:100AF600803A7802031D812D740876020318842D2E
:100B0600852DA22D72088600870142317208840065
:100B160073088500003FF400013FF500403F74076D
:100B26008400413F753D850070088000720886008C
:100B3600870142310130810741310318810A0800DB
:100B46000330F00040012108813115218531400133
:100B5600AB002230F7002B08F800583084311124FE
:100B660085314001AC002C080319BA2DBB2DBD2DD3
:100B76000030FF2DB101F82D0330F000310881312E
:100B8600152185314001B0003008223E86008701DC
:100B96000108AE003008013E223E860087010108AA
:100BA600AF003008023E223E860087010108AD00F4
:100BB6002F08F0002E0882319622853140012D063D
:100BC6000319E62DE72DE82DBB2D3108FD00013078
:100BD600FD35890BEB2D20087D07860087012F0840
:100BE600C03F2E08C13F0130B10721083102031C66
:100BF600FD2DFE2DBF2D0130080040019A1705304E
:100C0600F7000F30F600F130890B072EF60B072E92
:100C1600F70B072E00003830F10000308231F52244
:100C260086316830F600E430890B172EF60B172E46
:100C360000320830F10000308231F522863168300A
:100C4600F600E430890B252EF60B252E0032F10135
:100C5600F10A00308231F5228631D030F600CA30F2
:100C6600890B332EF60B332E0630F100003082311D
:100C7600F52286316830F600E430890B402EF60BFB
:100C8600402E00320C30F10000308231F5228631E0
:100C96000B30F6006230890B4E2EF60B4E2E0032CC
:100CA6000230F10000308231F52286311530F6002F
:100CB600C630890B5C2EF60B5C2E003208008031A4
:100CC600F32086318031D8208631133081310721D7
:100CD600863115304001C4004B30C300BE30890B4D
:100CE600722EC30B722EC40B722E000086310026A4
:100CF600863181316921863152304001C4002B3062
:100D0600C3000030890B852EC30B852EC40B852EA0
:100D16000000833128238631003A031D932E942E3A
:100D2600BA2E0030FB008830FC0084315A2486310C
:100D36004030FB008830FC008431AA248631400113
:100D46001B080139C3000130C3061B084306FE39E0
:100D560043069B0005304001C4000F30C300F1304C
:100D6600890BB32EC30BB32EC40BB32EA22E373072
:100D7600FB008830FC0084315A2486311030FB0099
:100D86008830FC008431AA24863140011B14673068
:100D9600B2000030B3008331CD238631003A031907
:100DA600D52ED62E052F40016B080319DB2EDC2E1F
:100DB600052F4530B2002B30B3008830B4006808E8
:100DC600B6006708B50082310A22863156304001E6
:100DD600B2001E30B3008830B4006A08B600690855
:100DE600B50082310A2286314530FB000030FC0016
:100DF60084315A2486315630FB000030FC008431A1
:100E0600AA24863115304001C4004B30C300BE30E1
:100E1600890B0B2FC30B0B2FC40B0B2F00004001AC
:100E26001B1015304001C4004B30C300BE30890B87
:100E36001A2FC30B1A2FC40B1A2F0000C82E80318D
:100E460002287B0886008701403F4001A000413F01
:100E5600A10020088400210885001200253A031D00
:100E6600352F362FD62F7B08860087010130810764
:100E760041310318810A4101C001C101003040011E
:100E8600EE00FF304101C200FF30C3007B08860040
:100E96008701403F4001A400413FA500240884008B
:100EA600250885001200753A031D5A2F5B2FCD2F9A
:100EB6007C088600870101088400850102308107CD
:100EC600003FA600013FA7002408013EA000003015
:100ED600253DA1007B08860087012008C03F210828
:100EE600C13FC42F2030AA000130AA022A08A03E22
:100EF600860087010A30F0000030F1002708F30071
:100F06002608F2008231C32287317008303E810004
:100F16000A30F0000030F10040012708F3002608EF
:100F2600F20083319323873171084001A7007008CE
:100F3600A600260827040319A12FA22FBD2F2A08D1
:100F4600031DA62FA72F772FBD2F2A08A03E8600A8
:100F560087010108A000A1012008F0002108F10086
:100F66007A08F3007908F20085314C258731013083
:100F76004001AA0720302A06031DC22FC32FA82F1F
:100F8600F02F24088400250885000008753A031907
:100F9600752FCD2F7B0886008701013081074131EF
:100FA6000318810AF02F7B0886008701403FA000C6
:100FB600413FA10020088400210885000008A20006
:100FC600A3012208F0002308F1007A08F30079084B
:100FD600F20085314C258731CD2F08004001EC0108
:100FE600ED01EE01A0308400003085002430803110
:100FF600D220873140018631622E53344734503433
:10100600333430342034533445344C3446342D3460
:1010160054344534533454340034573461347234C0
:101026006D3469346E3467342034753470342E343C
:101036002E342E340034543456344F3443343A3438
:1010460020342534753420347034703462340034DE
:1010560043344F3432343A34203425347534203412
:10106600703470346D340034533447345034333470
:10107600303420344F344B34003446344134493410
:0A1086004C34453444342134003466
:020000040001F9
:0A000E008F3FFF3F9F3FFF3FFF3F82
:00000001FF
